:04000000B1EF3FF02D
:107F62000001C2EF3FF0E0EC3FF0B9EC3FF012004D
:107F7200320ED36E000ED26E000E9B6E000EB56EE8
:107F82001200B4EC3FF08AB0C9EF3FF0CCEF3FF003
:107F9200010ECDEF3FF0000EFF0A016E8A5001186C
:107FA200FE0B01188A6EA30E016E550EE82EFED747
:107FB200012EFCD700F0C4EF3FF000EF00F0000EFE
:107FC2008D6E000E8C6E000E896E000E8A6E000E93
:107FD2008B6E070E966E9268FE0E936EC70E946EAF
:107FE20095680F015E69C40E5D6F3E0E5C6F070EF1
:0E7FF2005F6F2F0E5B6F000E856EF18E12001A
:020000040020DA
:08000000FFFFFFFFFFFFFFFF00
:020000040030CA
:0E00000000285F3CFFD385FF0FC00FE00F40CC
:00000001FF
