:04000000A1EF3FF03D
:107F42000001D2EF3FF0B2EC3FF0A9EC3FF012009B
:107F5200000ED36E000ED26E000E9B6E000EB56E3A
:107F62001200000E8D6E000E8C6E000E896E000ED9
:107F72008A6E000E8B6E070E966E9268000E936EDE
:107F8200C70E946E95680F015E69C40E5D6F000E98
:107F92005C6F070E5F6F2F0E5B6F000E856EF18EAA
:107FA2001200A4EC3FF0010E016E000E026E01C041
:107FB2008AFF830EE82EFED701500124016E022AA9
:107FC200060E0264E7EF3FF0E9EF3FF0D8EF3FF033
:107FD200070E026E01C08AFF830EE82EFED7D890EC
:107FE2000130016E02060250D8A4FAEF3FF0FCEF16
:0E7FF2003FF0EBEF3FF0D4EF3FF000EF00F078
:020000040020DA
:08000000FFFFFFFFFFFFFFFF00
:020000040030CA
:0E00000000285F3CFFD385FF0FC00FE00F40CC
:00000001FF
