:0400000062EF3FF07C
:107E600075EC3FF035EC3FF01200000ED36E000EC3
:107E7000D26E000E9B6E000EB56E1200016E8B80EE
:107E800001C089FF8B82050EE82EFED78B9212006F
:107E9000016E8B9001C089FF8B82050EE82EFED704
:107EA0008B9212004D6963726F73204144323032FD
:107EB00032202020544532303135202D204C616253
:107EC00020646520A40EF66E7E0EF76E000EF86E2E
:107ED00000EE23F010EE20F00900F5CFEEFFE550A4
:107EE000E150FAE10001BBEF3FF0000E8D6E000E95
:107EF0008C6E000E896E000E8A6E000E8B6E070E61
:107F0000966E000E926E9368C40E946E95680F0183
:107F10005E69C40E5D6F000E5C6F070E5F6F000E32
:107F20005B6F000E856EF18E12008B90380E896E9D
:107F30008B82050EE82EFED78B92020E896E8B8205
:107F4000050EE82EFED78B920C0E896E8B82050EE5
:107F5000E82EFED78B92010E896E8B82050EE82EDD
:107F6000FED78B92800E896E8B82050EE82EFED78F
:107F70008B928B80120030EC3FF095EC3FF020EEBE
:107F800033F010EE02F00F0EDBCFE3FFE806FCE269
:107F900020EE23F010EE12F00F0EDBCFE3FFE80629
:107FA000FCE2000E226E020E2224D96EDA6A000E66
:107FB000DA22DF503EEC3FF0222A0F0E2264E3EF7C
:107FC0003FF0E5EF3FF0D3EF3FF0C00E48EC3FF05D
:107FD000000E226E120E2224D96EDA6A000EDA2208
:107FE000DF503EEC3FF0222A0F0E2264FAEF3FF002
:107FF000FCEF3FF0EAEF3FF0FCEF3FF000EF00F066
:020000040020DA
:08000000FFFFFFFFFFFFFFFF00
:020000040030CA
:0E00000000285F3CFFD385FF0FC00FE00F40CC
:00000001FF
