:04000000A7EF3FF037
:107F4E000001D8EF3FF0B8EC3FF0AFEC3FF012007D
:107F5E00000ED36E000ED26E000E9B6E000EB56E2E
:107F6E001200000E8D6E000E8C6E000E896E000ECD
:107F7E008A6E000E8B6E070E966E9268000E936ED2
:107F8E00C70E946E95680F015E69C40E5D6F000E8C
:107F9E005C6F070E5F6F2F0E5B6F000E856EF18E9E
:107FAE001200AAEC3FF0000E8A6EEC0E00D0E82E06
:107FBE00FDD700F0180E8A6EEC0E00D0E82EFDD71D
:107FCE0000F03C0E8A6EEC0E00D0E82EFDD700F0CD
:107FDE007E0E8A6EEC0E00D0E82EFDD700F08A6879
:107FEE00EC0E00D0E82EFDD700F0DAEF3FF000EFF8
:027FFE0000F091
:020000040020DA
:08000000FFFFFFFFFFFFFFFF00
:020000040030CA
:0E00000000285F3CFFD385FF0FC00FE00F40CC
:00000001FF
